{
  "_format": "hh-sol-artifact-1",
  "contractName": "ImmeStaking",
  "sourceName": "contracts/Staking.sol",
  "abi": [
    {
      "inputs": [
        {
          "internalType": "contract IERC20",
          "name": "_immeToken",
          "type": "address"
        },
        {
          "internalType": "contract IERC20",
          "name": "_busdToken",
          "type": "address"
        },
        {
          "internalType": "address",
          "name": "_router",
          "type": "address"
        }
      ],
      "stateMutability": "nonpayable",
      "type": "constructor"
    },
    {
      "anonymous": false,
      "inputs": [
        {
          "indexed": true,
          "internalType": "address",
          "name": "previousOwner",
          "type": "address"
        },
        {
          "indexed": true,
          "internalType": "address",
          "name": "newOwner",
          "type": "address"
        }
      ],
      "name": "OwnershipTransferred",
      "type": "event"
    },
    {
      "inputs": [],
      "name": "UNISWAP_V2_ROUTER",
      "outputs": [
        {
          "internalType": "address",
          "name": "",
          "type": "address"
        }
      ],
      "stateMutability": "view",
      "type": "function"
    },
    {
      "inputs": [],
      "name": "busdToken",
      "outputs": [
        {
          "internalType": "contract IERC20",
          "name": "",
          "type": "address"
        }
      ],
      "stateMutability": "view",
      "type": "function"
    },
    {
      "inputs": [
        {
          "internalType": "address",
          "name": "user",
          "type": "address"
        }
      ],
      "name": "getClaimable",
      "outputs": [
        {
          "internalType": "uint256",
          "name": "",
          "type": "uint256"
        }
      ],
      "stateMutability": "view",
      "type": "function"
    },
    {
      "inputs": [
        {
          "internalType": "address",
          "name": "user",
          "type": "address"
        }
      ],
      "name": "getUserBalance",
      "outputs": [
        {
          "internalType": "uint256",
          "name": "",
          "type": "uint256"
        }
      ],
      "stateMutability": "view",
      "type": "function"
    },
    {
      "inputs": [],
      "name": "immeToken",
      "outputs": [
        {
          "internalType": "contract IERC20",
          "name": "",
          "type": "address"
        }
      ],
      "stateMutability": "view",
      "type": "function"
    },
    {
      "inputs": [],
      "name": "owner",
      "outputs": [
        {
          "internalType": "address",
          "name": "",
          "type": "address"
        }
      ],
      "stateMutability": "view",
      "type": "function"
    },
    {
      "inputs": [],
      "name": "renounceOwnership",
      "outputs": [],
      "stateMutability": "nonpayable",
      "type": "function"
    },
    {
      "inputs": [
        {
          "internalType": "address",
          "name": "",
          "type": "address"
        }
      ],
      "name": "stakers",
      "outputs": [
        {
          "internalType": "uint256",
          "name": "balance",
          "type": "uint256"
        },
        {
          "internalType": "uint256",
          "name": "startTime",
          "type": "uint256"
        }
      ],
      "stateMutability": "view",
      "type": "function"
    },
    {
      "inputs": [
        {
          "internalType": "uint256",
          "name": "_amount",
          "type": "uint256"
        }
      ],
      "name": "staking",
      "outputs": [],
      "stateMutability": "nonpayable",
      "type": "function"
    },
    {
      "inputs": [],
      "name": "totalRewards",
      "outputs": [
        {
          "internalType": "uint256",
          "name": "",
          "type": "uint256"
        }
      ],
      "stateMutability": "view",
      "type": "function"
    },
    {
      "inputs": [],
      "name": "totalStaked",
      "outputs": [
        {
          "internalType": "uint256",
          "name": "",
          "type": "uint256"
        }
      ],
      "stateMutability": "view",
      "type": "function"
    },
    {
      "inputs": [],
      "name": "totalUsers",
      "outputs": [
        {
          "internalType": "uint256",
          "name": "",
          "type": "uint256"
        }
      ],
      "stateMutability": "view",
      "type": "function"
    },
    {
      "inputs": [
        {
          "internalType": "address",
          "name": "newOwner",
          "type": "address"
        }
      ],
      "name": "transferOwnership",
      "outputs": [],
      "stateMutability": "nonpayable",
      "type": "function"
    },
    {
      "inputs": [],
      "name": "unstake",
      "outputs": [],
      "stateMutability": "nonpayable",
      "type": "function"
    }
  ],
  "bytecode": "0x60806040526000600555600060065560006007553480156200002057600080fd5b50604051620023a1380380620023a1833981810160405281019062000046919062000384565b620000666200005a620001be60201b60201c565b620001c660201b60201c565b82600160006101000a81548173ffffffffffffffffffffffffffffffffffffffff021916908373ffffffffffffffffffffffffffffffffffffffff16021790555081600260006101000a81548173ffffffffffffffffffffffffffffffffffffffff021916908373ffffffffffffffffffffffffffffffffffffffff16021790555080600360006101000a81548173ffffffffffffffffffffffffffffffffffffffff021916908373ffffffffffffffffffffffffffffffffffffffff16021790555033600460006101000a81548173ffffffffffffffffffffffffffffffffffffffff021916908373ffffffffffffffffffffffffffffffffffffffff160217905550620001b56040518060400160405280601a81526020017f4465706c6f79696e67207374616b696e6720636f6e74726163740000000000008152506200028a60201b62000c031760201c565b5050506200051e565b600033905090565b60008060009054906101000a900473ffffffffffffffffffffffffffffffffffffffff169050816000806101000a81548173ffffffffffffffffffffffffffffffffffffffff021916908373ffffffffffffffffffffffffffffffffffffffff1602179055508173ffffffffffffffffffffffffffffffffffffffff168173ffffffffffffffffffffffffffffffffffffffff167f8be0079c531659141344cd1fd0a4f28419497f9722a3daafe3b4186f6b6457e060405160405180910390a35050565b6200032a81604051602401620002a191906200041b565b6040516020818303038152906040527f41304fac000000000000000000000000000000000000000000000000000000007bffffffffffffffffffffffffffffffffffffffffffffffffffffffff19166020820180517bffffffffffffffffffffffffffffffffffffffffffffffffffffffff83818316178352505050506200032d60201b60201c565b50565b60008151905060006a636f6e736f6c652e6c6f679050602083016000808483855afa5050505050565b6000815190506200036781620004ea565b92915050565b6000815190506200037e8162000504565b92915050565b6000806000606084860312156200039a57600080fd5b6000620003aa868287016200036d565b9350506020620003bd868287016200036d565b9250506040620003d08682870162000356565b9150509250925092565b6000620003e7826200043f565b620003f381856200044a565b935062000405818560208601620004a3565b6200041081620004d9565b840191505092915050565b60006020820190508181036000830152620004378184620003da565b905092915050565b600081519050919050565b600082825260208201905092915050565b6000620004688262000483565b9050919050565b60006200047c826200045b565b9050919050565b600073ffffffffffffffffffffffffffffffffffffffff82169050919050565b60005b83811015620004c3578082015181840152602081019050620004a6565b83811115620004d3576000848401525b50505050565b6000601f19601f8301169050919050565b620004f5816200045b565b81146200050157600080fd5b50565b6200050f816200046f565b81146200051b57600080fd5b50565b611e73806200052e6000396000f3fe608060405234801561001057600080fd5b50600436106100ea5760003560e01c80638da5cb5b1161008c578063a82ed9ec11610066578063a82ed9ec14610228578063bff1f9e114610246578063de0e701414610264578063f2fde38b14610282576100ea565b80638da5cb5b146101a95780639168ae72146101c7578063a583024b146101f8576100ea565b80632def6620116100c85780632def6620146101475780634773489214610151578063715018a614610181578063817b1cd21461018b576100ea565b80630e15561a146100ef5780631c7435051461010d5780631dbb2a221461012b575b600080fd5b6100f761029e565b6040516101049190611936565b60405180910390f35b6101156102a4565b6040516101229190611879565b60405180910390f35b61014560048036038101906101409190611582565b6102ca565b005b61014f6107f0565b005b61016b600480360381019061016691906114ef565b610a44565b6040516101789190611936565b60405180910390f35b610189610ab4565b005b610193610ac8565b6040516101a09190611936565b60405180910390f35b6101b1610ace565b6040516101be9190611780565b60405180910390f35b6101e160048036038101906101dc91906114ef565b610af7565b6040516101ef929190611981565b60405180910390f35b610212600480360381019061020d91906114ef565b610b1b565b60405161021f9190611936565b60405180910390f35b610230610b2d565b60405161023d9190611780565b60405180910390f35b61024e610b53565b60405161025b9190611936565b60405180910390f35b61026c610b59565b6040516102799190611879565b60405180910390f35b61029c600480360381019061029791906114ef565b610b7f565b005b60075481565b600160009054906101000a900473ffffffffffffffffffffffffffffffffffffffff1681565b6000811161030d576040517f08c379a000000000000000000000000000000000000000000000000000000000815260040161030490611916565b60405180910390fd5b600260009054906101000a900473ffffffffffffffffffffffffffffffffffffffff1673ffffffffffffffffffffffffffffffffffffffff166323b872dd3330846040518463ffffffff1660e01b815260040161036c9392919061179b565b602060405180830381600087803b15801561038657600080fd5b505af115801561039a573d6000803e3d6000fd5b505050506040513d601f19601f820116820180604052508101906103be9190611559565b506060600267ffffffffffffffff811115610402577f4e487b7100000000000000000000000000000000000000000000000000000000600052604160045260246000fd5b6040519080825280602002602001820160405280156104305781602001602082028036833780820191505090505b509050600260009054906101000a900473ffffffffffffffffffffffffffffffffffffffff1681600081518110610490577f4e487b7100000000000000000000000000000000000000000000000000000000600052603260045260246000fd5b602002602001019073ffffffffffffffffffffffffffffffffffffffff16908173ffffffffffffffffffffffffffffffffffffffff1681525050600160009054906101000a900473ffffffffffffffffffffffffffffffffffffffff1681600181518110610527577f4e487b7100000000000000000000000000000000000000000000000000000000600052603260045260246000fd5b602002602001019073ffffffffffffffffffffffffffffffffffffffff16908173ffffffffffffffffffffffffffffffffffffffff16815250506060600360009054906101000a900473ffffffffffffffffffffffffffffffffffffffff1673ffffffffffffffffffffffffffffffffffffffff1663d06ca61f84846040518363ffffffff1660e01b81526004016105c0929190611951565b60006040518083038186803b1580156105d857600080fd5b505afa1580156105ec573d6000803e3d6000fd5b505050506040513d6000823e3d601f19601f820116820180604052508101906106159190611518565b905042600860003373ffffffffffffffffffffffffffffffffffffffff1673ffffffffffffffffffffffffffffffffffffffff1681526020019081526020016000206001018190555080600181518110610698577f4e487b7100000000000000000000000000000000000000000000000000000000600052603260045260246000fd5b6020026020010151600860003373ffffffffffffffffffffffffffffffffffffffff1673ffffffffffffffffffffffffffffffffffffffff16815260200190815260200160002060000181905550600860003373ffffffffffffffffffffffffffffffffffffffff1673ffffffffffffffffffffffffffffffffffffffff168152602001908152602001600020600001546005600082825461073a9190611a50565b925050819055506006600081548092919061075490611c47565b91905055506107eb600260009054906101000a900473ffffffffffffffffffffffffffffffffffffffff16600160009054906101000a900473ffffffffffffffffffffffffffffffffffffffff1685600860003373ffffffffffffffffffffffffffffffffffffffff1673ffffffffffffffffffffffffffffffffffffffff16815260200190815260200160002060000154610c9c565b505050565b6000600860003373ffffffffffffffffffffffffffffffffffffffff1673ffffffffffffffffffffffffffffffffffffffff1681526020019081526020016000206000015411610875576040517f08c379a000000000000000000000000000000000000000000000000000000000815260040161086c906118f6565b60405180910390fd5b600061088033610ee3565b905080600760008282546108949190611a50565b92505081905550600860003373ffffffffffffffffffffffffffffffffffffffff1673ffffffffffffffffffffffffffffffffffffffff16815260200190815260200160002060000154600560008282546108ef9190611b31565b92505081905550600081600860003373ffffffffffffffffffffffffffffffffffffffff1673ffffffffffffffffffffffffffffffffffffffff168152602001908152602001600020600001546109469190611a50565b90506000600860003373ffffffffffffffffffffffffffffffffffffffff1673ffffffffffffffffffffffffffffffffffffffff16815260200190815260200160002060000181905550600160009054906101000a900473ffffffffffffffffffffffffffffffffffffffff1673ffffffffffffffffffffffffffffffffffffffff1663a9059cbb33836040518363ffffffff1660e01b81526004016109ed929190611850565b602060405180830381600087803b158015610a0757600080fd5b505af1158015610a1b573d6000803e3d6000fd5b505050506040513d601f19601f82011682018060405250810190610a3f9190611559565b505050565b600080600860008473ffffffffffffffffffffffffffffffffffffffff1673ffffffffffffffffffffffffffffffffffffffff1681526020019081526020016000206040518060400160405290816000820154815260200160018201548152505090508060000151915050919050565b610abc611292565b610ac66000611310565b565b60055481565b60008060009054906101000a900473ffffffffffffffffffffffffffffffffffffffff16905090565b60086020528060005260406000206000915090508060000154908060010154905082565b6000610b2682610ee3565b9050919050565b600360009054906101000a900473ffffffffffffffffffffffffffffffffffffffff1681565b60065481565b600260009054906101000a900473ffffffffffffffffffffffffffffffffffffffff1681565b610b87611292565b600073ffffffffffffffffffffffffffffffffffffffff168173ffffffffffffffffffffffffffffffffffffffff161415610bf7576040517f08c379a0000000000000000000000000000000000000000000000000000000008152600401610bee906118b6565b60405180910390fd5b610c0081611310565b50565b610c9981604051602401610c179190611894565b6040516020818303038152906040527f41304fac000000000000000000000000000000000000000000000000000000007bffffffffffffffffffffffffffffffffffffffffffffffffffffffff19166020820180517bffffffffffffffffffffffffffffffffffffffffffffffffffffffff83818316178352505050506113d4565b50565b8373ffffffffffffffffffffffffffffffffffffffff1663095ea7b3600360009054906101000a900473ffffffffffffffffffffffffffffffffffffffff16846040518363ffffffff1660e01b8152600401610cf9929190611850565b602060405180830381600087803b158015610d1357600080fd5b505af1158015610d27573d6000803e3d6000fd5b505050506040513d601f19601f82011682018060405250810190610d4b9190611559565b508273ffffffffffffffffffffffffffffffffffffffff1663095ea7b3600360009054906101000a900473ffffffffffffffffffffffffffffffffffffffff16836040518363ffffffff1660e01b8152600401610da9929190611850565b602060405180830381600087803b158015610dc357600080fd5b505af1158015610dd7573d6000803e3d6000fd5b505050506040513d601f19601f82011682018060405250810190610dfb9190611559565b50600360009054906101000a900473ffffffffffffffffffffffffffffffffffffffff1673ffffffffffffffffffffffffffffffffffffffff1663e8e3370085858585600080600460009054906101000a900473ffffffffffffffffffffffffffffffffffffffff16426040518963ffffffff1660e01b8152600401610e889897969594939291906117d2565b606060405180830381600087803b158015610ea257600080fd5b505af1158015610eb6573d6000803e3d6000fd5b505050506040513d601f19601f82011682018060405250810190610eda91906115ab565b50505050505050565b600080600860008473ffffffffffffffffffffffffffffffffffffffff1673ffffffffffffffffffffffffffffffffffffffff1681526020019081526020016000206001015442610f349190611b31565b905060006303b538008210610f99576005600860008673ffffffffffffffffffffffffffffffffffffffff1673ffffffffffffffffffffffffffffffffffffffff16815260200190815260200160002060000154610f929190611ad7565b9050611288565b6301da9c008210610ffa576002600860008673ffffffffffffffffffffffffffffffffffffffff1673ffffffffffffffffffffffffffffffffffffffff16815260200190815260200160002060000154610ff39190611ad7565b9050611287565b62ed4e008210611066576064604b600860008773ffffffffffffffffffffffffffffffffffffffff1673ffffffffffffffffffffffffffffffffffffffff168152602001908152602001600020600001546110559190611ad7565b61105f9190611aa6565b9050611286565b6276a70082106110d25760646019600860008773ffffffffffffffffffffffffffffffffffffffff1673ffffffffffffffffffffffffffffffffffffffff168152602001908152602001600020600001546110c19190611ad7565b6110cb9190611aa6565b9050611285565b624f1a00821061113e5760646010600860008773ffffffffffffffffffffffffffffffffffffffff1673ffffffffffffffffffffffffffffffffffffffff1681526020019081526020016000206000015461112d9190611ad7565b6111379190611aa6565b9050611284565b62278d0082106111ab576103e8604b600860008773ffffffffffffffffffffffffffffffffffffffff1673ffffffffffffffffffffffffffffffffffffffff1681526020019081526020016000206000015461119a9190611ad7565b6111a49190611aa6565b9050611283565b621275008210611218576103e86023600860008773ffffffffffffffffffffffffffffffffffffffff1673ffffffffffffffffffffffffffffffffffffffff168152602001908152602001600020600001546112079190611ad7565b6112119190611aa6565b9050611282565b62093a808210611281576103e8600f600860008773ffffffffffffffffffffffffffffffffffffffff1673ffffffffffffffffffffffffffffffffffffffff168152602001908152602001600020600001546112749190611ad7565b61127e9190611aa6565b90505b5b5b5b5b5b5b5b8092505050919050565b61129a6113fd565b73ffffffffffffffffffffffffffffffffffffffff166112b8610ace565b73ffffffffffffffffffffffffffffffffffffffff161461130e576040517f08c379a0000000000000000000000000000000000000000000000000000000008152600401611305906118d6565b60405180910390fd5b565b60008060009054906101000a900473ffffffffffffffffffffffffffffffffffffffff169050816000806101000a81548173ffffffffffffffffffffffffffffffffffffffff021916908373ffffffffffffffffffffffffffffffffffffffff1602179055508173ffffffffffffffffffffffffffffffffffffffff168173ffffffffffffffffffffffffffffffffffffffff167f8be0079c531659141344cd1fd0a4f28419497f9722a3daafe3b4186f6b6457e060405160405180910390a35050565b60008151905060006a636f6e736f6c652e6c6f679050602083016000808483855afa5050505050565b600033905090565b6000611418611413846119cf565b6119aa565b9050808382526020820190508285602086028201111561143757600080fd5b60005b85811015611467578161144d88826114da565b84526020840193506020830192505060018101905061143a565b5050509392505050565b60008135905061148081611df8565b92915050565b600082601f83011261149757600080fd5b81516114a7848260208601611405565b91505092915050565b6000815190506114bf81611e0f565b92915050565b6000813590506114d481611e26565b92915050565b6000815190506114e981611e26565b92915050565b60006020828403121561150157600080fd5b600061150f84828501611471565b91505092915050565b60006020828403121561152a57600080fd5b600082015167ffffffffffffffff81111561154457600080fd5b61155084828501611486565b91505092915050565b60006020828403121561156b57600080fd5b6000611579848285016114b0565b91505092915050565b60006020828403121561159457600080fd5b60006115a2848285016114c5565b91505092915050565b6000806000606084860312156115c057600080fd5b60006115ce868287016114da565b93505060206115df868287016114da565b92505060406115f0868287016114da565b9150509250925092565b60006116068383611612565b60208301905092915050565b61161b81611b65565b82525050565b61162a81611b65565b82525050565b600061163b82611a0b565b6116458185611a2e565b9350611650836119fb565b8060005b8381101561168157815161166888826115fa565b975061167383611a21565b925050600181019050611654565b5085935050505092915050565b61169781611bad565b82525050565b6116a681611bd1565b82525050565b60006116b782611a16565b6116c18185611a3f565b93506116d1818560208601611be3565b6116da81611d1d565b840191505092915050565b60006116f2602683611a3f565b91506116fd82611d2e565b604082019050919050565b6000611715602083611a3f565b915061172082611d7d565b602082019050919050565b6000611738601583611a3f565b915061174382611da6565b602082019050919050565b600061175b601f83611a3f565b915061176682611dcf565b602082019050919050565b61177a81611ba3565b82525050565b60006020820190506117956000830184611621565b92915050565b60006060820190506117b06000830186611621565b6117bd6020830185611621565b6117ca6040830184611771565b949350505050565b6000610100820190506117e8600083018b611621565b6117f5602083018a611621565b6118026040830189611771565b61180f6060830188611771565b61181c608083018761169d565b61182960a083018661169d565b61183660c0830185611621565b61184360e0830184611771565b9998505050505050505050565b60006040820190506118656000830185611621565b6118726020830184611771565b9392505050565b600060208201905061188e600083018461168e565b92915050565b600060208201905081810360008301526118ae81846116ac565b905092915050565b600060208201905081810360008301526118cf816116e5565b9050919050565b600060208201905081810360008301526118ef81611708565b9050919050565b6000602082019050818103600083015261190f8161172b565b9050919050565b6000602082019050818103600083015261192f8161174e565b9050919050565b600060208201905061194b6000830184611771565b92915050565b60006040820190506119666000830185611771565b81810360208301526119788184611630565b90509392505050565b60006040820190506119966000830185611771565b6119a36020830184611771565b9392505050565b60006119b46119c5565b90506119c08282611c16565b919050565b6000604051905090565b600067ffffffffffffffff8211156119ea576119e9611cee565b5b602082029050602081019050919050565b6000819050602082019050919050565b600081519050919050565b600081519050919050565b6000602082019050919050565b600082825260208201905092915050565b600082825260208201905092915050565b6000611a5b82611ba3565b9150611a6683611ba3565b9250827fffffffffffffffffffffffffffffffffffffffffffffffffffffffffffffffff03821115611a9b57611a9a611c90565b5b828201905092915050565b6000611ab182611ba3565b9150611abc83611ba3565b925082611acc57611acb611cbf565b5b828204905092915050565b6000611ae282611ba3565b9150611aed83611ba3565b9250817fffffffffffffffffffffffffffffffffffffffffffffffffffffffffffffffff0483118215151615611b2657611b25611c90565b5b828202905092915050565b6000611b3c82611ba3565b9150611b4783611ba3565b925082821015611b5a57611b59611c90565b5b828203905092915050565b6000611b7082611b83565b9050919050565b60008115159050919050565b600073ffffffffffffffffffffffffffffffffffffffff82169050919050565b6000819050919050565b6000611bb882611bbf565b9050919050565b6000611bca82611b83565b9050919050565b6000611bdc82611ba3565b9050919050565b60005b83811015611c01578082015181840152602081019050611be6565b83811115611c10576000848401525b50505050565b611c1f82611d1d565b810181811067ffffffffffffffff82111715611c3e57611c3d611cee565b5b80604052505050565b6000611c5282611ba3565b91507fffffffffffffffffffffffffffffffffffffffffffffffffffffffffffffffff821415611c8557611c84611c90565b5b600182019050919050565b7f4e487b7100000000000000000000000000000000000000000000000000000000600052601160045260246000fd5b7f4e487b7100000000000000000000000000000000000000000000000000000000600052601260045260246000fd5b7f4e487b7100000000000000000000000000000000000000000000000000000000600052604160045260246000fd5b6000601f19601f8301169050919050565b7f4f776e61626c653a206e6577206f776e657220697320746865207a65726f206160008201527f6464726573730000000000000000000000000000000000000000000000000000602082015250565b7f4f776e61626c653a2063616c6c6572206973206e6f7420746865206f776e6572600082015250565b7f496e73756666696369656e742062616c616e6365210000000000000000000000600082015250565b7f54686572652069736e277420656e6f75676820796f75722062616c616e636500600082015250565b611e0181611b65565b8114611e0c57600080fd5b50565b611e1881611b77565b8114611e2357600080fd5b50565b611e2f81611ba3565b8114611e3a57600080fd5b5056fea2646970667358221220cfb913645832ea739d09ae55246e7dbf771ecb399e66398dc8b0fd53cb61cb7664736f6c63430008040033",
  "linkReferences": {},
  "deployedLinkReferences": {}
}