{
  "_format": "hh-sol-artifact-1",
  "contractName": "ImmeStaking",
  "sourceName": "contracts/Staking.sol",
  "abi": [
    {
      "inputs": [
        {
          "internalType": "contract IERC20",
          "name": "_immeToken",
          "type": "address"
        },
        {
          "internalType": "contract IERC20",
          "name": "_busdToken",
          "type": "address"
        },
        {
          "internalType": "address",
          "name": "_router",
          "type": "address"
        }
      ],
      "stateMutability": "nonpayable",
      "type": "constructor"
    },
    {
      "anonymous": false,
      "inputs": [
        {
          "indexed": true,
          "internalType": "address",
          "name": "previousOwner",
          "type": "address"
        },
        {
          "indexed": true,
          "internalType": "address",
          "name": "newOwner",
          "type": "address"
        }
      ],
      "name": "OwnershipTransferred",
      "type": "event"
    },
    {
      "inputs": [],
      "name": "UNISWAP_V2_ROUTER",
      "outputs": [
        {
          "internalType": "address",
          "name": "",
          "type": "address"
        }
      ],
      "stateMutability": "view",
      "type": "function"
    },
    {
      "inputs": [],
      "name": "busdToken",
      "outputs": [
        {
          "internalType": "contract IERC20",
          "name": "",
          "type": "address"
        }
      ],
      "stateMutability": "view",
      "type": "function"
    },
    {
      "inputs": [],
      "name": "immeToken",
      "outputs": [
        {
          "internalType": "contract IERC20",
          "name": "",
          "type": "address"
        }
      ],
      "stateMutability": "view",
      "type": "function"
    },
    {
      "inputs": [],
      "name": "owner",
      "outputs": [
        {
          "internalType": "address",
          "name": "",
          "type": "address"
        }
      ],
      "stateMutability": "view",
      "type": "function"
    },
    {
      "inputs": [],
      "name": "renounceOwnership",
      "outputs": [],
      "stateMutability": "nonpayable",
      "type": "function"
    },
    {
      "inputs": [
        {
          "internalType": "address",
          "name": "",
          "type": "address"
        }
      ],
      "name": "stakers",
      "outputs": [
        {
          "internalType": "uint256",
          "name": "balance",
          "type": "uint256"
        },
        {
          "internalType": "uint256",
          "name": "startTime",
          "type": "uint256"
        }
      ],
      "stateMutability": "view",
      "type": "function"
    },
    {
      "inputs": [
        {
          "internalType": "uint256",
          "name": "_amount",
          "type": "uint256"
        }
      ],
      "name": "staking",
      "outputs": [],
      "stateMutability": "nonpayable",
      "type": "function"
    },
    {
      "inputs": [],
      "name": "totalRewards",
      "outputs": [
        {
          "internalType": "uint256",
          "name": "",
          "type": "uint256"
        }
      ],
      "stateMutability": "view",
      "type": "function"
    },
    {
      "inputs": [],
      "name": "totalStaked",
      "outputs": [
        {
          "internalType": "uint256",
          "name": "",
          "type": "uint256"
        }
      ],
      "stateMutability": "view",
      "type": "function"
    },
    {
      "inputs": [],
      "name": "totalUsers",
      "outputs": [
        {
          "internalType": "uint256",
          "name": "",
          "type": "uint256"
        }
      ],
      "stateMutability": "view",
      "type": "function"
    },
    {
      "inputs": [
        {
          "internalType": "address",
          "name": "newOwner",
          "type": "address"
        }
      ],
      "name": "transferOwnership",
      "outputs": [],
      "stateMutability": "nonpayable",
      "type": "function"
    },
    {
      "inputs": [],
      "name": "unstake",
      "outputs": [],
      "stateMutability": "nonpayable",
      "type": "function"
    }
  ],
  "bytecode": "0x60806040526000600555600060065560006007553480156200002057600080fd5b506040516200226f3803806200226f833981810160405281019062000046919062000384565b620000666200005a620001be60201b60201c565b620001c660201b60201c565b82600160006101000a81548173ffffffffffffffffffffffffffffffffffffffff021916908373ffffffffffffffffffffffffffffffffffffffff16021790555081600260006101000a81548173ffffffffffffffffffffffffffffffffffffffff021916908373ffffffffffffffffffffffffffffffffffffffff16021790555080600360006101000a81548173ffffffffffffffffffffffffffffffffffffffff021916908373ffffffffffffffffffffffffffffffffffffffff16021790555033600460006101000a81548173ffffffffffffffffffffffffffffffffffffffff021916908373ffffffffffffffffffffffffffffffffffffffff160217905550620001b56040518060400160405280601a81526020017f4465706c6f79696e67207374616b696e6720636f6e74726163740000000000008152506200028a60201b62000a4e1760201c565b5050506200051e565b600033905090565b60008060009054906101000a900473ffffffffffffffffffffffffffffffffffffffff169050816000806101000a81548173ffffffffffffffffffffffffffffffffffffffff021916908373ffffffffffffffffffffffffffffffffffffffff1602179055508173ffffffffffffffffffffffffffffffffffffffff168173ffffffffffffffffffffffffffffffffffffffff167f8be0079c531659141344cd1fd0a4f28419497f9722a3daafe3b4186f6b6457e060405160405180910390a35050565b6200032a81604051602401620002a191906200041b565b6040516020818303038152906040527f41304fac000000000000000000000000000000000000000000000000000000007bffffffffffffffffffffffffffffffffffffffffffffffffffffffff19166020820180517bffffffffffffffffffffffffffffffffffffffffffffffffffffffff83818316178352505050506200032d60201b60201c565b50565b60008151905060006a636f6e736f6c652e6c6f679050602083016000808483855afa5050505050565b6000815190506200036781620004ea565b92915050565b6000815190506200037e8162000504565b92915050565b6000806000606084860312156200039a57600080fd5b6000620003aa868287016200036d565b9350506020620003bd868287016200036d565b9250506040620003d08682870162000356565b9150509250925092565b6000620003e7826200043f565b620003f381856200044a565b935062000405818560208601620004a3565b6200041081620004d9565b840191505092915050565b60006020820190508181036000830152620004378184620003da565b905092915050565b600081519050919050565b600082825260208201905092915050565b6000620004688262000483565b9050919050565b60006200047c826200045b565b9050919050565b600073ffffffffffffffffffffffffffffffffffffffff82169050919050565b60005b83811015620004c3578082015181840152602081019050620004a6565b83811115620004d3576000848401525b50505050565b6000601f19601f8301169050919050565b620004f5816200045b565b81146200050157600080fd5b50565b6200050f816200046f565b81146200051b57600080fd5b50565b611d41806200052e6000396000f3fe608060405234801561001057600080fd5b50600436106100b45760003560e01c80638da5cb5b116100715780638da5cb5b146101435780639168ae7214610161578063a82ed9ec14610192578063bff1f9e1146101b0578063de0e7014146101ce578063f2fde38b146101ec576100b4565b80630e15561a146100b95780631c743505146100d75780631dbb2a22146100f55780632def662014610111578063715018a61461011b578063817b1cd214610125575b600080fd5b6100c1610208565b6040516100ce9190611804565b60405180910390f35b6100df61020e565b6040516100ec9190611747565b60405180910390f35b61010f600480360381019061010a9190611450565b610234565b005b610119610718565b005b610123610911565b005b61012d610925565b60405161013a9190611804565b60405180910390f35b61014b61092b565b604051610158919061164e565b60405180910390f35b61017b600480360381019061017691906113bd565b610954565b60405161018992919061184f565b60405180910390f35b61019a610978565b6040516101a7919061164e565b60405180910390f35b6101b861099e565b6040516101c59190611804565b60405180910390f35b6101d66109a4565b6040516101e39190611747565b60405180910390f35b610206600480360381019061020191906113bd565b6109ca565b005b60075481565b600160009054906101000a900473ffffffffffffffffffffffffffffffffffffffff1681565b60008111610277576040517f08c379a000000000000000000000000000000000000000000000000000000000815260040161026e906117e4565b60405180910390fd5b600260009054906101000a900473ffffffffffffffffffffffffffffffffffffffff1673ffffffffffffffffffffffffffffffffffffffff166323b872dd3330846040518463ffffffff1660e01b81526004016102d693929190611669565b602060405180830381600087803b1580156102f057600080fd5b505af1158015610304573d6000803e3d6000fd5b505050506040513d601f19601f820116820180604052508101906103289190611427565b506060600267ffffffffffffffff81111561036c577f4e487b7100000000000000000000000000000000000000000000000000000000600052604160045260246000fd5b60405190808252806020026020018201604052801561039a5781602001602082028036833780820191505090505b509050600260009054906101000a900473ffffffffffffffffffffffffffffffffffffffff16816000815181106103fa577f4e487b7100000000000000000000000000000000000000000000000000000000600052603260045260246000fd5b602002602001019073ffffffffffffffffffffffffffffffffffffffff16908173ffffffffffffffffffffffffffffffffffffffff1681525050600160009054906101000a900473ffffffffffffffffffffffffffffffffffffffff1681600181518110610491577f4e487b7100000000000000000000000000000000000000000000000000000000600052603260045260246000fd5b602002602001019073ffffffffffffffffffffffffffffffffffffffff16908173ffffffffffffffffffffffffffffffffffffffff16815250506060600360009054906101000a900473ffffffffffffffffffffffffffffffffffffffff1673ffffffffffffffffffffffffffffffffffffffff1663d06ca61f84846040518363ffffffff1660e01b815260040161052a92919061181f565b60006040518083038186803b15801561054257600080fd5b505afa158015610556573d6000803e3d6000fd5b505050506040513d6000823e3d601f19601f8201168201806040525081019061057f91906113e6565b905042600860003373ffffffffffffffffffffffffffffffffffffffff1673ffffffffffffffffffffffffffffffffffffffff1681526020019081526020016000206001018190555080600181518110610602577f4e487b7100000000000000000000000000000000000000000000000000000000600052603260045260246000fd5b6020026020010151600860003373ffffffffffffffffffffffffffffffffffffffff1673ffffffffffffffffffffffffffffffffffffffff168152602001908152602001600020600001819055508260056000828254610662919061191e565b925050819055506006600081548092919061067c90611b15565b9190505550610713600260009054906101000a900473ffffffffffffffffffffffffffffffffffffffff16600160009054906101000a900473ffffffffffffffffffffffffffffffffffffffff1685600860003373ffffffffffffffffffffffffffffffffffffffff1673ffffffffffffffffffffffffffffffffffffffff16815260200190815260200160002060000154610ae7565b505050565b6000600860003373ffffffffffffffffffffffffffffffffffffffff1673ffffffffffffffffffffffffffffffffffffffff168152602001908152602001600020600001541161079d576040517f08c379a0000000000000000000000000000000000000000000000000000000008152600401610794906117c4565b60405180910390fd5b60006107a833610d2e565b905080600760008282546107bc919061191e565b92505081905550600081600860003373ffffffffffffffffffffffffffffffffffffffff1673ffffffffffffffffffffffffffffffffffffffff16815260200190815260200160002060000154610813919061191e565b90506000600860003373ffffffffffffffffffffffffffffffffffffffff1673ffffffffffffffffffffffffffffffffffffffff16815260200190815260200160002060000181905550600160009054906101000a900473ffffffffffffffffffffffffffffffffffffffff1673ffffffffffffffffffffffffffffffffffffffff1663a9059cbb33836040518363ffffffff1660e01b81526004016108ba92919061171e565b602060405180830381600087803b1580156108d457600080fd5b505af11580156108e8573d6000803e3d6000fd5b505050506040513d601f19601f8201168201806040525081019061090c9190611427565b505050565b610919611160565b61092360006111de565b565b60055481565b60008060009054906101000a900473ffffffffffffffffffffffffffffffffffffffff16905090565b60086020528060005260406000206000915090508060000154908060010154905082565b600360009054906101000a900473ffffffffffffffffffffffffffffffffffffffff1681565b60065481565b600260009054906101000a900473ffffffffffffffffffffffffffffffffffffffff1681565b6109d2611160565b600073ffffffffffffffffffffffffffffffffffffffff168173ffffffffffffffffffffffffffffffffffffffff161415610a42576040517f08c379a0000000000000000000000000000000000000000000000000000000008152600401610a3990611784565b60405180910390fd5b610a4b816111de565b50565b610ae481604051602401610a629190611762565b6040516020818303038152906040527f41304fac000000000000000000000000000000000000000000000000000000007bffffffffffffffffffffffffffffffffffffffffffffffffffffffff19166020820180517bffffffffffffffffffffffffffffffffffffffffffffffffffffffff83818316178352505050506112a2565b50565b8373ffffffffffffffffffffffffffffffffffffffff1663095ea7b3600360009054906101000a900473ffffffffffffffffffffffffffffffffffffffff16846040518363ffffffff1660e01b8152600401610b4492919061171e565b602060405180830381600087803b158015610b5e57600080fd5b505af1158015610b72573d6000803e3d6000fd5b505050506040513d601f19601f82011682018060405250810190610b969190611427565b508273ffffffffffffffffffffffffffffffffffffffff1663095ea7b3600360009054906101000a900473ffffffffffffffffffffffffffffffffffffffff16836040518363ffffffff1660e01b8152600401610bf492919061171e565b602060405180830381600087803b158015610c0e57600080fd5b505af1158015610c22573d6000803e3d6000fd5b505050506040513d601f19601f82011682018060405250810190610c469190611427565b50600360009054906101000a900473ffffffffffffffffffffffffffffffffffffffff1673ffffffffffffffffffffffffffffffffffffffff1663e8e3370085858585600080600460009054906101000a900473ffffffffffffffffffffffffffffffffffffffff16426040518963ffffffff1660e01b8152600401610cd39897969594939291906116a0565b606060405180830381600087803b158015610ced57600080fd5b505af1158015610d01573d6000803e3d6000fd5b505050506040513d601f19601f82011682018060405250810190610d259190611479565b50505050505050565b600080600860008473ffffffffffffffffffffffffffffffffffffffff1673ffffffffffffffffffffffffffffffffffffffff1681526020019081526020016000206001015442610d7f91906119ff565b9050600062093a8082610d929190611974565b905060006212750083610da59190611974565b9050600062278d0084610db89190611974565b90506000624f1a0085610dcb9190611974565b905060006276a70086610dde9190611974565b9050600062ed4e0087610df19190611974565b905060006301da9c0088610e059190611974565b905060006001881415610e75576103e8600f600860008e73ffffffffffffffffffffffffffffffffffffffff1673ffffffffffffffffffffffffffffffffffffffff16815260200190815260200160002060000154610e6491906119a5565b610e6e9190611974565b905061114f565b60018710158015610e865750600387105b15610eee576103e86023600860008e73ffffffffffffffffffffffffffffffffffffffff1673ffffffffffffffffffffffffffffffffffffffff16815260200190815260200160002060000154610edd91906119a5565b610ee79190611974565b905061114e565b6001861415610f5a576103e8604b600860008e73ffffffffffffffffffffffffffffffffffffffff1673ffffffffffffffffffffffffffffffffffffffff16815260200190815260200160002060000154610f4991906119a5565b610f539190611974565b905061114d565b6001851415610fc55760646010600860008e73ffffffffffffffffffffffffffffffffffffffff1673ffffffffffffffffffffffffffffffffffffffff16815260200190815260200160002060000154610fb491906119a5565b610fbe9190611974565b905061114c565b6001841161102f5760646019600860008e73ffffffffffffffffffffffffffffffffffffffff1673ffffffffffffffffffffffffffffffffffffffff1681526020019081526020016000206000015461101e91906119a5565b6110289190611974565b905061114b565b60018311611099576064604b600860008e73ffffffffffffffffffffffffffffffffffffffff1673ffffffffffffffffffffffffffffffffffffffff1681526020019081526020016000206000015461108891906119a5565b6110929190611974565b905061114a565b600182116110f7576002600860008d73ffffffffffffffffffffffffffffffffffffffff1673ffffffffffffffffffffffffffffffffffffffff168152602001908152602001600020600001546110f091906119a5565b9050611149565b6005600860008d73ffffffffffffffffffffffffffffffffffffffff1673ffffffffffffffffffffffffffffffffffffffff1681526020019081526020016000206000015461114691906119a5565b90505b5b5b5b5b5b5b809950505050505050505050919050565b6111686112cb565b73ffffffffffffffffffffffffffffffffffffffff1661118661092b565b73ffffffffffffffffffffffffffffffffffffffff16146111dc576040517f08c379a00000000000000000000000000000000000000000000000000000000081526004016111d3906117a4565b60405180910390fd5b565b60008060009054906101000a900473ffffffffffffffffffffffffffffffffffffffff169050816000806101000a81548173ffffffffffffffffffffffffffffffffffffffff021916908373ffffffffffffffffffffffffffffffffffffffff1602179055508173ffffffffffffffffffffffffffffffffffffffff168173ffffffffffffffffffffffffffffffffffffffff167f8be0079c531659141344cd1fd0a4f28419497f9722a3daafe3b4186f6b6457e060405160405180910390a35050565b60008151905060006a636f6e736f6c652e6c6f679050602083016000808483855afa5050505050565b600033905090565b60006112e66112e18461189d565b611878565b9050808382526020820190508285602086028201111561130557600080fd5b60005b85811015611335578161131b88826113a8565b845260208401935060208301925050600181019050611308565b5050509392505050565b60008135905061134e81611cc6565b92915050565b600082601f83011261136557600080fd5b81516113758482602086016112d3565b91505092915050565b60008151905061138d81611cdd565b92915050565b6000813590506113a281611cf4565b92915050565b6000815190506113b781611cf4565b92915050565b6000602082840312156113cf57600080fd5b60006113dd8482850161133f565b91505092915050565b6000602082840312156113f857600080fd5b600082015167ffffffffffffffff81111561141257600080fd5b61141e84828501611354565b91505092915050565b60006020828403121561143957600080fd5b60006114478482850161137e565b91505092915050565b60006020828403121561146257600080fd5b600061147084828501611393565b91505092915050565b60008060006060848603121561148e57600080fd5b600061149c868287016113a8565b93505060206114ad868287016113a8565b92505060406114be868287016113a8565b9150509250925092565b60006114d483836114e0565b60208301905092915050565b6114e981611a33565b82525050565b6114f881611a33565b82525050565b6000611509826118d9565b61151381856118fc565b935061151e836118c9565b8060005b8381101561154f57815161153688826114c8565b9750611541836118ef565b925050600181019050611522565b5085935050505092915050565b61156581611a7b565b82525050565b61157481611a9f565b82525050565b6000611585826118e4565b61158f818561190d565b935061159f818560208601611ab1565b6115a881611beb565b840191505092915050565b60006115c060268361190d565b91506115cb82611bfc565b604082019050919050565b60006115e360208361190d565b91506115ee82611c4b565b602082019050919050565b600061160660158361190d565b915061161182611c74565b602082019050919050565b6000611629601f8361190d565b915061163482611c9d565b602082019050919050565b61164881611a71565b82525050565b600060208201905061166360008301846114ef565b92915050565b600060608201905061167e60008301866114ef565b61168b60208301856114ef565b611698604083018461163f565b949350505050565b6000610100820190506116b6600083018b6114ef565b6116c3602083018a6114ef565b6116d0604083018961163f565b6116dd606083018861163f565b6116ea608083018761156b565b6116f760a083018661156b565b61170460c08301856114ef565b61171160e083018461163f565b9998505050505050505050565b600060408201905061173360008301856114ef565b611740602083018461163f565b9392505050565b600060208201905061175c600083018461155c565b92915050565b6000602082019050818103600083015261177c818461157a565b905092915050565b6000602082019050818103600083015261179d816115b3565b9050919050565b600060208201905081810360008301526117bd816115d6565b9050919050565b600060208201905081810360008301526117dd816115f9565b9050919050565b600060208201905081810360008301526117fd8161161c565b9050919050565b6000602082019050611819600083018461163f565b92915050565b6000604082019050611834600083018561163f565b818103602083015261184681846114fe565b90509392505050565b6000604082019050611864600083018561163f565b611871602083018461163f565b9392505050565b6000611882611893565b905061188e8282611ae4565b919050565b6000604051905090565b600067ffffffffffffffff8211156118b8576118b7611bbc565b5b602082029050602081019050919050565b6000819050602082019050919050565b600081519050919050565b600081519050919050565b6000602082019050919050565b600082825260208201905092915050565b600082825260208201905092915050565b600061192982611a71565b915061193483611a71565b9250827fffffffffffffffffffffffffffffffffffffffffffffffffffffffffffffffff0382111561196957611968611b5e565b5b828201905092915050565b600061197f82611a71565b915061198a83611a71565b92508261199a57611999611b8d565b5b828204905092915050565b60006119b082611a71565b91506119bb83611a71565b9250817fffffffffffffffffffffffffffffffffffffffffffffffffffffffffffffffff04831182151516156119f4576119f3611b5e565b5b828202905092915050565b6000611a0a82611a71565b9150611a1583611a71565b925082821015611a2857611a27611b5e565b5b828203905092915050565b6000611a3e82611a51565b9050919050565b60008115159050919050565b600073ffffffffffffffffffffffffffffffffffffffff82169050919050565b6000819050919050565b6000611a8682611a8d565b9050919050565b6000611a9882611a51565b9050919050565b6000611aaa82611a71565b9050919050565b60005b83811015611acf578082015181840152602081019050611ab4565b83811115611ade576000848401525b50505050565b611aed82611beb565b810181811067ffffffffffffffff82111715611b0c57611b0b611bbc565b5b80604052505050565b6000611b2082611a71565b91507fffffffffffffffffffffffffffffffffffffffffffffffffffffffffffffffff821415611b5357611b52611b5e565b5b600182019050919050565b7f4e487b7100000000000000000000000000000000000000000000000000000000600052601160045260246000fd5b7f4e487b7100000000000000000000000000000000000000000000000000000000600052601260045260246000fd5b7f4e487b7100000000000000000000000000000000000000000000000000000000600052604160045260246000fd5b6000601f19601f8301169050919050565b7f4f776e61626c653a206e6577206f776e657220697320746865207a65726f206160008201527f6464726573730000000000000000000000000000000000000000000000000000602082015250565b7f4f776e61626c653a2063616c6c6572206973206e6f7420746865206f776e6572600082015250565b7f496e73756666696369656e742062616c616e6365210000000000000000000000600082015250565b7f54686572652069736e277420656e6f75676820796f75722062616c616e636500600082015250565b611ccf81611a33565b8114611cda57600080fd5b50565b611ce681611a45565b8114611cf157600080fd5b50565b611cfd81611a71565b8114611d0857600080fd5b5056fea26469706673582212202db279946d59752be01029b7a8a394f3564341b148e2771f26a4a618321dda6264736f6c63430008040033",
  "linkReferences": {},
  "deployedLinkReferences": {}
}